:1000000012C02CC02BC05AC029C028C027C026C08F
:1000100025C024C023C022C021C020C01FC01EC0D4
:100020001DC0CCC31BC011241FBECFE5D4E0DEBF72
:10003000CDBF10E0A0E6B0E0ECEAFDE002C0059024
:100040000D92AE36B107D9F711E0AEE6B0E001C0CF
:100050001D92AD3BB107E1F754D1A6C6D1CF80E0E8
:1000600090E008953FB7F894282F215023BD805089
:10007000914011F48DE001C08AE085BD89B78068A8
:1000800089BF14BC8091620087FF0DC08091600021
:10009000813019F41092620006C0882321F4809107
:1000A0007300809362003FBF789408959FB7F894DF
:1000B00089B78F7789BF9FBF789408951F920F9259
:1000C0000FB60F9211248F939F93EF93FF9380911C
:1000D000710090917200892BD9F17894809176000B
:1000E0008F5F8093760090917600809161009817E1
:1000F00078F11092760080917100909172000197D2
:10010000909372008093710090916200E92FFF2715
:10011000E7FDF095E750FF4F808182BB8091600042
:10012000813051F49F5F9093620080917300981723
:100130007CF0109262000CC0882351F4915090938F
:10014000620097FF05C080917300980F9093620042
:10015000FF91EF919F918F910F900FBE0F901F9085
:1001600018952FB7F89491EA9FBD877E8EBD2FBF5B
:1001700008952FB7F89490E09BBD8ABD70E079BDDB
:1001800068BD2FBF089580EF81BB82BB87B38660B7
:1001900087BB089512BC88E080937300A9EFB0E09C
:1001A000E3E6F0E001900D928150E1F780E090E00D
:1001B00008958BE790E062E070E01CD508951F93EE
:1001C00010E009C086D4143030F4E12FF0E0E1589B
:1001D000FF4F80831F5F74D4892BA1F7E12FF0E0DC
:1001E000E130F10509F06DC010927C0080917F0034
:1001F0008C3199F18D3150F48130C9F08130A0F00B
:10020000823001F18A3109F059C020C0803279F181
:10021000813220F48D3109F051C024C0813271F156
:10022000803F09F04BC045C086E090E002C086E800
:1002300098E2909384008093830090937C00809355
:100240007B004BC084E080937B0047C080916000BE
:1002500080937B008091610029C080917100909112
:100260007200EBCF80916E0090916F00E6CF80918D
:10027000730080937B00109275002FC090917500E1
:100280008091730098177CF4E92FFF27E7FDF09524
:10029000E750FF4F808182958F7080937B009F5F36
:1002A000909375001AC010927B0081E080937C00CF
:1002B00014C08091790090917A00BFCF10927B009A
:1002C0000CC0F0937A00E0937900339731F481E029
:1002D00090E090937800809377001F91089580E4D8
:1002E00084BB8FE085BB83B390E0809590958F7041
:1002F00090701BD58FED90E049D489ED90E04BD400
:100300000895AF92BF92CF92DF92EF92FF920F9338
:100310001F93CF93DF9380EF81BB82BB87B386604F
:1003200087BB9FB7F89481EA8FBD83E08EBD9FBFE6
:10033000D6DF30DF2BE088E190E00FB6F894A89587
:1003400081BD0FBE21BD7894E1EACE2E73E0A72EC9
:1003500000E011E064E6E62EF12C50E8B52ECFEF78
:10036000D0E0DD24D39420917000222369F0F8942A
:1003700080917100909172007894892B29F41092E9
:10038000760089B78F7789BFA89580917700909183
:100390007800892B51F310927800109277008091A9
:1003A0007F00813209F4DDC0823298F48C3109F487
:1003B000A1C08D3138F48A3109F462C08B3109F063
:1003C000EAC08EC08D3109F4ADC0803209F0E3C0BF
:1003D000BDC0813A69F1823A30F4823851F08438F4
:1003E00009F0D9C013C0853A89F18A3A09F0D3C01F
:1003F0003DC08FB7F8942091800030E03BBD2ABD0E
:100400002091810030E039BD28BD0BC09091800063
:10041000892F8150853038F48FB7F894CFBC977E00
:100420009EBD8FBFA0CF8FB7F894CFBCAEBCF9CF25
:1004300090B38091800082958073907C892B82BBE1
:100440008091810090E09BBD8ABD8DCF90B380915B
:1004500080008295880F880F807C9073892B82BBE7
:100460008091810090E099BD88BD7DCF8091800012
:1004700090E044E0880F991F4A95E1F782BB73CF63
:100480008FB7F89499B79F7799BF8FBF7894809171
:1004900080008093600080916E0090916F000097C3
:1004A00031F06AE070E04AD46093610004C080914A
:1004B00081008093610080916100882311F4D092C3
:1004C000610080916B0090916C00CCDD8FB7F89447
:1004D000DBBDCABDD9BDC8BD8FBFD092700043CFB0
:1004E000109270009FB7F89489B78F7789BF9FBF2C
:1004F000789439CFF8948091800090918100909306
:1005000072008093710080917000882349F080917F
:10051000710090917200892B19F089B7806889BFAA
:10052000789421CF809180009091810090936F000A
:1005300080936E00892B29F0F0926C00E0926B00A2
:1005400012CF10936C0000936B000DCF8091800050
:100550008093730087FF02C0B09273001092740002
:1005600002CF209174008091730028170CF0FBCE0D
:10057000E22FFF27E7FDF095E750FF4F80918000C5
:1005800090E034E0880F991F3A95E1F780832F5F60
:1005900020937400E8CE0000E6CE1092850081E042
:1005A000809387001092880085B3806385BB08988C
:1005B000099880E280B985E486BF089586B78A7B72
:1005C00086BF85B38F7C85BB0895880F82B9089557
:1005D0009B01AC0160E072E18AE790E0C3D3205157
:1005E000304040405040569547953795279520B963
:1005F0000895382F413210F040E043C080918500CB
:100600008823E1F791E090938500209387008FEF96
:100610008093F2001092AD0041504093AE004F5FC6
:100620009093860080918600330F832B8093860001
:1006300080918800813051F410928800809186006A
:1006400083B906B603FCFACF85EC01C085EE86BF00
:10065000809185008130E1F38091AD00841710F422
:100660004091AD0020E030E00AC0FB01E20FF31F33
:10067000D901A357BF4F8C9180832F5F3F4F241721
:10068000A0F3842F08950F931F93582F122F4132F8
:1006900010F081E04BC0809185008823E1F782E073
:1006A00080938500009387008FEF8093F200109273
:1006B000AD004093AE00ADE8B0E0FB0102C0819117
:1006C0008D938E2F861B8417D0F310928600809115
:1006D0008600550F852B809386008091880081309D
:1006E00051F4109288008091860083B906B603FC0D
:1006F000FACF85EC01C085EE86BF112321F08091F1
:1007000085008230E1F38091F2008F3F11F480E0A8
:100710000DC08091F200803211F482E007C0809118
:10072000F200803311F084E001C083E01F910F914B
:1007300008959C018091D00090E0860F911D8197D3
:1007400014F081E0089580918500843011F082E0FA
:100750000895D90190E00BC08091D000E92FF0E01E
:10076000E155FF4FE80FF11D8D9180839F5F961734
:1007700098F38091D000860F8093D00080E0089598
:1007800090938C0080938B00089590938A008093BF
:1007900089000895882311F085EC01C085E886BFA3
:1007A000089585ED86BF06B604FCFDCF1092850046
:1007B000089585EC86BF1092850008951F920F92D0
:1007C0000FB60F9211242F933F934F935F936F9324
:1007D0007F938F939F93AF93BF93EF93FF9381B1D9
:1007E00090E0887F90708036910509F4E4C08136EE
:1007F0009105CCF58832910509F47AC089329105CA
:10080000B4F48031910509F46FC0813191053CF455
:10081000009709F430C1089709F036C165C08831E6
:10082000910509F465C0809709F02EC17EC080341F
:10083000910509F49BC08134910544F480339105FE
:1008400009F47CC0C89709F01FC181C080359105AB
:1008500009F481C08835910509F48DC0883491056B
:1008600009F012C1A2C08839910509F4FEC0893986
:100870009105ECF48837910509F49DC089379105FD
:100880004CF48836910509F496C08037910509F03B
:10089000FBC091C08838910509F4E7C08039910503
:1008A00009F48FC08038910509F0EEC08AC0803B02
:1008B000910509F4B2C0813B91054CF4803A910551
:1008C00009F490C0883A910509F0DEC0A6C0803CCA
:1008D000910509F4CDC0883C910509F4C9C0883B55
:1008E000910509F0D1C0AEC08091860083B9BBC02C
:1008F0009091AD008091AE00981760F49091AD009A
:10090000E92FF0E0E357FF4F808183B99F5F909319
:10091000AD00A9C080918700882309F441C085ED0E
:1009200086BF06B604FCFDCFADC080E28093F20026
:1009300085ED86BF06B604FCFDCFA4C080E380939E
:10094000F20085ED86BF06B604FCFDCF9BC088E3B0
:100950008093F2008DC08091AD0093B1E82FF0E05C
:10096000E357FF4F90838F5F8093AD009091AD0070
:100970008091AE0076C08091AD0093B1E82FF0E099
:10098000E357FF4F90838F5F8093AD008091870086
:10099000882331F085ED86BF06B604FCFDCF72C01A
:1009A00081E08093880084EA64C085ED86BF06B646
:1009B00004FCFDCF67C083E0809385001092F100B6
:1009C00052C08091F100803208F04FC08091F10058
:1009D00093B1E82FF0E0EF52FF4F90838F5F809349
:1009E000F10041C085EC86BF109285008091F10036
:1009F000803230F4E091F100F0E0EF52FF4F1082CE
:100A00006091F100E0918B00F0918C0081ED90E01D
:100A100070E009951092F10037C084E08093850062
:100A20001092CF001092D000E0918900F0918A00DE
:100A300009958091D000882329F481E08093D0002B
:100A40001092AF009091CF00E92FF0E0E155FF4FF9
:100A5000808183B99F5F9093CF009091CF00809168
:100A6000D000981710F485EC01C085E886BF0CC053
:100A700085EC86BF07C01092F20085ED86BF06B6F2
:100A800004FCFDCF10928500FF91EF91BF91AF91D3
:100A90009F918F917F916F915F914F913F912F9196
:100AA0000F900FBE0F901F901895089591E09093AE
:100AB000F8008093F5001092F6001092F700089568
:100AC0002091F4008091F30030E0281B3109C90126
:100AD00008959091F3008091F400981718F02FEF8B
:100AE0003FEF0DC0E091F300F0E0E558FE4F80814C
:100AF000282F30E08091F3008F5F8093F300C901CD
:100B000008959091F3008091F400981718F02FEF5A
:100B10003FEF08C0E091F300F0E0E558FE4F808120
:100B2000282F30E0C90108950895AC012091BB0140
:100B30003091BC0121153105E1F09091F3008091D5
:100B4000F4009817B0F090E008C0FA01EA0FFB1F1C
:100B50008081A558BE4F8C939F5FA92FB0E0A61748
:100B6000B7079CF31092F3006093F400CB01F901F6
:100B700009950895E0917901F0917A01309729F073
:100B80001092F6001092F700099508959093BC0119
:100B90008093BB01089590937A0180937901089521
:100BA000DF93CF930F92CDB7DEB789838091F800A2
:100BB0008823A9F08091F700803218F020E030E01F
:100BC00014C08091F600E82FF0E0E556FE4F9981C1
:100BD00090838F5F8093F6008093F70004C0CE016E
:100BE000019661E0A6DD21E030E0C9010F90CF91D0
:100BF000DF910895EF92FF920F931F93CF93DF93AE
:100C00007C018B018091F800882369F0C0E0D0E07E
:100C100006C0F701EC0FFD1F8081C2DF2196C017CF
:100C2000D107B8F302C0C70184DDC801DF91CF91BD
:100C30001F910F91FF90EF9008950F93082F8091CF
:100C4000F5006BE971E04091F70021E01CDD1092A6
:100C5000F6001092F7001092F8000F91089581E0CD
:100C6000ECDF0895AF92BF92CF92DF92EF92FF92A6
:100C70000F931F93182FF62E59016A01002311F1CB
:100C800081E08093F8001093F5001092F600109226
:100C9000F700043098F003E011C00150802F880F56
:100CA000880F880FA601950104C056954795379582
:100CB00027958A95D2F7DA01C90172DF002369F717
:100CC00080E0BBDF4F2D413208F040E2812F6BE71F
:100CD00071E02E2D8EDC1092F3008093F4001F91B2
:100CE0000F91FF90EF90DF90CF90BF90AF9008955D
:100CF000EF920F93E42E20E030E040E050E000E07F
:100D0000B1DF0F91EF90089541E0F2DF089560DCCC
:100D1000089554DC08951092F3001092F40010929C
:100D2000F6001092F70039DC08954FDC8AEB95E06D
:100D30002CDD85E995E024DDEEDF0895AA1BBB1BC1
:100D400051E107C0AA1FBB1FA617B70710F0A61BCB
:100D5000B70B881F991F5A95A9F780959095BC01EC
:100D6000CD010895A1E21A2EAA1BBB1BFD010DC0E7
:100D7000AA1FBB1FEE1FFF1FA217B307E407F5074B
:100D800020F0A21BB30BE40BF50B661F771F881F27
:100D9000991F1A9469F760957095809590959B01BD
:0C0DA000AC01BD01CF010895F894FFCF15
:0E0DAC000164FF1030206040C0809000010004
:00000001FF
