:1000000012C02CC02BC02AC065C028C027C026C083
:1000100025C024C023C022C021C020C01FC01EC0D4
:100020001DC0EAC01BC011241FBECFE5D4E0DEBF57
:10003000CDBF10E0A0E6B0E0E8E3F4E002C0059038
:100040000D92AC36B107D9F720E0ACE6B0E001C0C4
:100050001D92A939B207E1F734D1ECC1D1CFE091BB
:100060007200F0917300EC59FF4F808182BB809148
:100070006200813091F4809172009091730001963A
:100080008830910529F09093730080937200089551
:10009000109273001092720008958111F8CF809130
:1000A000720090917300019770F787E090E0EBCFBA
:1000B0009FB7F89485E085BD89B7806489BF14BC7B
:1000C0009FBF789408958FB7F89499B719BE8FBFE2
:1000D000789408951F920F920FB60F9211248F9368
:1000E0009F9381E090E090936F0080936E009F91CA
:1000F0008F910F900FBE0F901F90189530E020E069
:1001000042EE54E02817390709F40895FA013197AF
:10011000F1F72F5F3F4FF6CF9FB7F89421EA2FBD3D
:100120008EBD9FBF08952FB7F89490E09BBD8ABD08
:1001300070E079BD68BD2FBF089580EF81BB82BBA1
:1001400087B3866087BB089514BA8FE085BB83B3FD
:1001500090E080959095880F991F8E7100C082B9AC
:100160008FEF83B984E086BF089586B781700895C4
:1001700006B600FCFDCF80916300089506B600FC32
:10018000FDCF60937600282FA7E7B0E0FC018E2F0B
:10019000821B861740F01092740088EF80936300F2
:1001A00085EC86BF089581918D93F1CF06B600FC52
:1001B000FDCF1092740088EF8093630085EC86BFBA
:1001C000089506B600FCFDCF2091740020FF0DC0FD
:1001D000A7E7B0E0282FFC018E2F821B861748F07E
:1001E000809174008D7F8093740080917400817081
:1001F00008958D918193F0CF1F920F920FB60F92B9
:1002000011248F939F93EF93FF9381B1803A09F468
:1002100052C0D8F4803709F441C038F4803609F46C
:1002200042C081B1809363004AC0803811F08039A8
:10023000C1F7E091750081E08E0F8093750083B166
:10024000F0E0E958FF4F80831FC0883B29F038F465
:10025000883A39F71092750082E083B904C0803C77
:1002600069F0883CF1F685EC86BFFF91EF919F9194
:100270008F910F900FBE0F901F9018959091750061
:1002800080917600981306C08091740081608093FD
:100290007400E9CF81B180936300E5CF8091740051
:1002A00084608093740080917400826080937400F5
:1002B00010927500D8CF809175008330A0F284E051
:1002C000D3CFCF93DF9300D000D0CDB7DEB735DFEB
:1002D00083E022DF789438DF69DF88E198E00FB6A9
:1002E000F894A89581BD0FBE91BDA89580916E0030
:1002F00090916F000197F9F4809160009FEF980F43
:100300009E3F08F042C080916C0090916D0020915A
:1003100061002817190609F094F5A1DE10926D000E
:1003200010926C0080916000815080936000109268
:100330006F0010926E0019DF8111D7CF8091740089
:100340008370833091F663E0CE0101963ADF8981B4
:10035000823809F43FC058F58B3109F469C08C31FB
:1003600009F462C08A3141F5AEDE8A818093620071
:100370008B81809361009CDE6FEF8FEF2DC0019623
:1003800090936D0080936C00D2CF8F3FA1F6809147
:100390006C0090916D00209161002817190609F0FA
:1003A00074F75DDE10926D0010926C00C0CF813A40
:1003B000A9F020F4843879F100000AC0853AE9F008
:1003C0008A3AD1F78A8120E1829FC001112482BB41
:1003D000EDDE8BCF6B818A81A6DEFACF20B39A81C6
:1003E00030E1939FC00111248073207C822B82BB5B
:1003F0008B8190E09BBD8ABDEBCF80B32A8190E4D6
:10040000299F900111248073822B82BB8B8190E005
:1004100099BD88BDDDCF8A819FEF980F953010F48C
:100420007BDED6CF83E0FCCF8A8180936000D0CF83
:080430004ADEC2CFF894FFCFB1
:0C043800FF6401F81030206040C080908C
:00000001FF
