:1000000012C02CC02BC02AC065C028C027C026C083
:1000100025C024C023C022C021C020C01FC01EC0D4
:100020001DC0EAC01BC011241FBECFE5D4E0DEBF57
:10003000CDBF10E0A0E6B0E0EEE2F4E002C0059033
:100040000D92AC36B107D9F720E0ACE6B0E001C0C4
:100050001D92A939B207E1F739D1E7C1D1CFE091BB
:100060007200F0917300EC59FF4F808182BB809148
:100070006200813091F4809172009091730001963A
:100080008830910529F09093730080937200089551
:10009000109273001092720008958111F8CF809130
:1000A000720090917300019770F787E090E0EBCFBA
:1000B0009FB7F89485E085BD89B7806489BF14BC7B
:1000C0009FBF789408958FB7F89499B719BE8FBFE2
:1000D000789408951F920F920FB60F9211248F9368
:1000E0009F9381E090E090936F0080936E009F91CA
:1000F0008F910F900FBE0F901F90189530E020E069
:1001000042EE54E02817390709F40895FA013197AF
:10011000F1F72F5F3F4FF6CF9FB7F89421EA2FBD3D
:100120008EBD9FBF08952FB7F89490E09BBD8ABD08
:1001300070E079BD68BD2FBF089580EF81BB82BBA1
:1001400087B3866087BB089514BA8FE085BB83B3FD
:1001500090E080959095880F991F8E7100C082B9AC
:100160008FEF83B984E086BF089586B781700895C4
:1001700006B600FCFDCF80916300089506B600FC32
:10018000FDCF60937600282FA7E7B0E0FC018E2F0B
:10019000821B861740F01092740088EF80936300F2
:1001A00085EC86BF089581918D93F1CF06B600FC52
:1001B000FDCF1092740088EF8093630085EC86BFBA
:1001C000089506B600FCFDCF2091740020FF0DC0FD
:1001D000A7E7B0E0282FFC018E2F821B861748F07E
:1001E000809174008D7F8093740080917400817081
:1001F00008958D918193F0CF1F920F920FB60F92B9
:1002000011248F939F93EF93FF9381B1803909F469
:100210004CC058F48037E1F1803809F446C080368C
:10022000E1F181B18093630019C0883AC9F038F4D4
:10023000803AB9F7809175008330F8F00FC0883BA1
:1002400089F0803C71F79091750080917600981349
:10025000E8CF8091740081608093740084E00EC0C8
:1002600010927500E091750081E08E0F809375000B
:10027000F0E0E958FF4F808183B985EC86BFFF919C
:10028000EF919F918F910F900FBE0F901F90189537
:100290008091740084608093740080917400826007
:1002A0008093740010927500E8CFE091750081E0B2
:1002B0008E0F8093750083B1F0E0E958FF4F808383
:1002C00080917400816080937400D7CFCF93DF93C7
:1002D00000D000D0CDB7DEB730DF83E01DDF7894EB
:1002E00033DF64DF80916E0090916F000197F9F425
:1002F000809160009FEF980F9E3F08F042C0809170
:100300006C0090916D00209161002817190609F08A
:1003100094F5A5DE10926D0010926C008091600043
:1003200081508093600010926F0010926E001DDF6C
:100330008111D8CF809174008370833099F663E087
:10034000CE0101963EDF8981823809F43EC058F51E
:100350008B3109F468C08C3109F461C08A3141F5F0
:10036000B2DE8A81809362008B8180936100A0DE7F
:100370006FEF8FEF2CC0019690936D0080936C000F
:10038000D2CF8F3FA1F680916C0090916D002091AB
:1003900061002817190609F074F761DE10926D00EC
:1003A00010926C00C0CF813AA1F020F4843871F132
:1003B000000097CF853AE1F08A3AD1F78A8120E1AF
:1003C000829FC001112482BB8CCF6B818A81ABDEFE
:1003D00088CF20B39A8130E1939FC00111248073AC
:1003E000207C822B82BB8B8190E09BBD8ABD79CF24
:1003F00080B32A8190E4299F900111248073822B7D
:1004000082BB8B8190E099BD88BD6BCF8A819FEFC5
:10041000980F953010F480DE64CF83E0FCCF8A81A2
:0E042000809360005ECF4FDEC3CFF894FFCF15
:0C042E00FF6401F81030206040C0809096
:00000001FF
